:100000000C9472000C948B000C948B000C948B005D
:100010000C948B000C948B000C948B000C948B0034
:100020000C948B000C948B000C948B000C948B0024
:100030000C948B000C948B000C948B000C948B0014
:100040000C948B000C948B000C948B000C948B0004
:100050000C948B000C948B000C948B000C948B00F4
:100060000C948B000C948B000C948B000C948B00E4
:100070000C948B000C948B000C948B000C948B00D4
:100080000C948B000C948B000C948B000C948B00C4
:100090000C948B000C948B000C948B000C948B00B4
:1000A0000C948B000C948B000C948B000C948B00A4
:1000B0000C948B000C948B000C948B000C948B0094
:1000C0000C948B000C948B000C948B000C948B0084
:1000D0000C948B000C948B000C948B000C948B0074
:1000E0000C948B0011241FBECFEFD1E2DEBFCDBF39
:1000F00000E00CBF14E0A0E0B2E0E4E4F1E000E0D6
:100100000BBF02C007900D92A03DB107D9F70E9426
:100110008D000C94A0000C9400008FEF84B983E84C
:1001200093E0E0E0F2E02081329627BD84BD95BDEA
:1001300020E92A95F1F724E0E03DF207A1F7F1CF9D
:04014000F894FFCF61
:10014400800082008400860088008B008D008F0070
:1001540091009300960098009A009C009E00A000D5
:10016400A300A500A700A900AB00AD00AF00B1003B
:10017400B300B500B700B900BB00BD00BF00C100AB
:10018400C300C500C700C900CA00CC00CE00D0001F
:10019400D100D300D500D600D800DA00DB00DD00A2
:1001A400DE00E000E100E300E400E500E700E80031
:1001B400E900EA00EC00ED00EE00EF00F000F100D1
:1001C400F200F300F400F500F600F700F700F80081
:1001D400F900F900FA00FB00FB00FC00FC00FD0044
:1001E400FD00FD00FE00FE00FE00FF00FF00FF001A
:1001F400FF00FF00FF00FF00FF00FF00FF00FF0003
:10020400FE00FE00FE00FD00FD00FD00FC00FC0001
:10021400FB00FB00FA00F900F900F800F700F70012
:10022400F600F500F400F300F200F100F000EF0036
:10023400EE00ED00EC00EA00E900E800E700E5006C
:10024400E400E300E100E000DE00DD00DB00DA00B2
:10025400D800D600D500D300D100D000CE00CC0009
:10026400CA00C900C700C500C300C100BF00BD006B
:10027400BB00B900B700B500B300B100AF00AD00DA
:10028400AB00A900A700A500A300A0009E009C004D
:100294009A0098009600930091008F008D008B00C7
:1002A400880086008400820080007D007B00790045
:1002B40077007400720070006E006C0069006700C3
:1002C4006500630061005F005C005A00580056003E
:1002D4005400520050004E004C004A0048004600B2
:1002E4004400420040003E003C003A003800360022
:1002F4003500330031002F002E002C002A00290085
:10030400270025002400220021001F001E001C00DD
:100314001B001A0018001700160015001300120025
:10032400110010000F000E000D000C000B000A005D
:100334000900080008000700060006000500040084
:100344000400030003000200020002000100010097
:100354000100000000000000000000000000000098
:100364000000000000000000010001000100020084
:10037400020002000300030004000400050006005C
:10038400060007000800080009000A000B000C0022
:100394000D000E000F0010001100120013001500D4
:1003A4001600170018001A001B001C001E001F0076
:1003B4002100220024002500270029002A002C0007
:1003C4002E002F00310033003500360038003A008B
:1003D4003C003E00400042004400460048004A0001
:1003E4004C004E00500052005400560058005A0071
:1003F4005C005F00610063006500670069006C00D9
:100404006E00700072007400770079007B007D003C
:00000001FF
