:100000000C9474000C9495000C9495000C9495003D
:100010000C9495000C9495000C9495000C9495000C
:100020000C9495000C9495000C9495000C949500FC
:100030000C9495000C9495000C9495000C949500EC
:100040000C9495000C9495000C9495000C949500DC
:100050000C9495000C9495000C9495000C949500CC
:100060000C9495000C9495000C9495000C949500BC
:100070000C9495000C9495000C9495000C949500AC
:100080000C9495000C9495000C9495000C9495009C
:100090000C9495000C9495000C9495000C9495008C
:1000A0000C9495000C9495000C9495000C9495007C
:1000B0000C9495000C9495000C9495000C9495006C
:1000C0000C9495000C9495000C9495000C9495005C
:1000D0000C9495000C9495000C9495000C9495004C
:1000E0000C9495000C94970011241FBECFEFD1E221
:1000F000DEBFCDBF00E00CBF12E0A0E0B2E0E8E15F
:10010000F2E000E00BBF02C007900D92AA31B107E8
:10011000D9F722E0AAE1B2E001C01D92A032B207F5
:10012000E1F70E94B6000C940A010C940000909133
:10013000C00095FFFCCF8093C600082E000C990BE1
:1001400008951092C50080E18093C400E0ECF0E0D7
:10015000808182608083E1ECF0E080818860808330
:1001600086E08093C20080E092E008950E94A100A2
:1001700090931D0280931C02389A409A2FEF83EDD2
:1001800090E3215080409040E1F700C000008EE0F5
:1001900092E00E94DA0040982FEF83ED90E3215027
:1001A00080409040E1F700C0000084E192E00E94AE
:1001B000DA00E3CF0F931F93CF93DF93E0911C02FC
:1001C000F0911D02238121FF1BC08C01D0E0C0E013
:1001D000F80181918F0160911C0270911D02DB0179
:1001E0001896ED91FC911997882331F01995892B78
:1001F00079F3DFEFCFEFECCF8AE01995892B19F077
:100200008FEF9FEF02C08D2F9C2FDF91CF911F9119
:080210000F910895F894FFCF4F
:100218000000000200000000970000000000686570
:0A0228006C6C6F00776F726C64005D
:00000001FF
