:100000000C9472000C948B000C948B000C948B005D
:100010000C948B000C948B000C948B000C948B0034
:100020000C948B000C948B000C948B000C948B0024
:100030000C948B000C948B000C948B000C948B0014
:100040000C948B000C948B000C948B000C948B0004
:100050000C948B000C948B000C948B000C948B00F4
:100060000C948B000C948B000C948B000C948B00E4
:100070000C948B000C948B000C948B000C948B00D4
:100080000C948B000C948B000C948B000C948B00C4
:100090000C948B000C948B000C948B000C948B00B4
:1000A0000C948B000C948B000C948B000C948B00A4
:1000B0000C948B000C948B000C948B000C948B0094
:1000C0000C948B000C948B000C948B000C948B0084
:1000D0000C948B000C948B000C948B000C948B0074
:1000E0000C948B0011241FBECFEFD1E2DEBFCDBF39
:1000F00000E00CBF14E0A0E0B2E0E0EBF2E000E0D2
:100100000BBF02C007900D92A03DB107D9F70E9426
:100110008D000C9456010C9400008FEF84B98DB9BA
:100120008093800082E0809381009BEA909390000E
:100130008093910020E131E0C0EED3E0A0EFB2E087
:1001400040E052E0F0E2EF2EF0E0FF2E80E090E0A1
:100150008A01FA01608171817695679560938800C4
:10016000608171817695679570938900803F9105D4
:1001700074F0F701608171817695679560938C00CA
:10018000608171817695679570938D0011C06D9136
:100190007C9111977695679560938C006D917C9119
:1001A00011977695679570938D008837910554F077
:1001B000F901608171817695679560938A0060810D
:1001C000718108C0688179817695679560938A000E
:1001D000688179817695679570938B00FA016191BA
:1001E0007191AF0176956795645060939800F8011E
:1001F000608171817695679564507109709399005B
:10020000803F91058CF0F70160817181769567954B
:10021000645060939C00608171817695679564500D
:10022000710970939D0014C06D917C911197769522
:100230006795645060939C006D917C9111977695C1
:1002400067956450710970939D00883791055CF043
:10025000F9016081718176956795645060939A0089
:100260006081718109C06881798176956795645054
:1002700060939A00688179817695679564507109D9
:1002800070939B00E3EAF1E03197F1F700C00000C2
:1002900001962E5F3F4F22961296F2E0EF0EF11C70
:1002A000883661E0960709F053CF44CFF894FFCF2A
:1002B0000002090212021B0224022D0236023E0233
:1002C00047025002590262026A0273027C028502EE
:1002D0008D0296029E02A702AF02B702C002C802B8
:1002E000D002D802E002E802F002F802000308039C
:1002F0000F0317031E0326032D0334033B0342039E
:100300004903500357035D0364036A0370037603D4
:100310007C03820388038E03930399039E03A30344
:10032000A803AD03B203B703BB03C003C403C803F0
:10033000CC03D003D403D703DB03DE03E103E403E0
:10034000E703EA03EC03EF03F103F303F503F70319
:10035000F803FA03FB03FC03FD03FE03FF03FF03A3
:1003600000040004000400040004FF03FF03FE0374
:10037000FD03FC03FB03FA03F803F703F503F303A0
:10038000F103EF03EC03EA03E703E403E103DE0315
:10039000DB03D703D403D003CC03C803C403C003D7
:1003A000BB03B703B203AD03A803A3039E039903E2
:1003B00093038E03880382037C03760370036A032E
:1003C00064035D0357035003490342033B033403B3
:1003D0002D0326031E0317030F0308030003F8026F
:1003E000F002E802E002D802D002C802C002B7025E
:1003F000AF02A7029E0296028D0285027C02730262
:100400006A0262025902500247023E0236022D027F
:1004100024021B02120209020002F701EE01E501AB
:10042000DC01D301CA01C201B901B001A7019E01DB
:1004300096018D0184017B0173016A0162015901FA
:100440005101490140013801300128012001180102
:10045000100108010001F800F100E900E200DA00F3
:10046000D300CC00C500BE00B700B000A900A300B7
:100470009C00960090008A0084007E007800720044
:100480006D00670062005D00580053004E00490097
:10049000450040003C003800340030002C002900AA
:1004A000250022001F001C00190016001400110076
:1004B0000F000D000B0009000800080008000800EC
:1004C00008000800080008000800080008000800EC
:1004D00008000800080008000800080008000800DC
:1004E000080009000B000D000F0011001400160099
:1004F00019001C001F002200250029002C003000DC
:10050000340038003C004000450049004E005300D4
:1005100058005D00620067006D00720078007E0088
:1005200084008A00900096009C00A300A900B000FF
:10053000B700BE00C500CC00D300DA00E200E9003D
:10054000F100F80000010801100118012001280144
:1005500030013801400149015101590162016A012C
:1005600073017B0184018D0196019E01A701B001F9
:10057000B901C201CA01D301DC01E501EE01F701B5
:00000001FF
