:100000000C9472000C9486000C9486000C9486006C
:100010000C9486000C9486000C9486000C94860048
:100020000C9486000C9486000C9486000C94860038
:100030000C9486000C9486000C9486000C94860028
:100040000C9486000C9486000C9486000C94860018
:100050000C9486000C9486000C9486000C94860008
:100060000C9486000C9486000C9486000C948600F8
:100070000C9486000C9486000C9486000C948600E8
:100080000C9486000C9486000C9486000C948600D8
:100090000C9486000C9486000C9486000C948600C8
:1000A0000C9486000C9486000C9486000C948600B8
:1000B0000C9486000C9486000C9486000C948600A8
:1000C0000C9486000C9486000C9486000C94860098
:1000D0000C9486000C9486000C9486000C94860088
:1000E0000C94860011241FBECFEFD1E2DEBFCDBF3E
:1000F00000E00CBF22E0A0E0B2E001C01D92A630FB
:10010000B207E1F70E9488000C940C010C940000E7
:100110008FEF87B988B918B82FEF28B91092050268
:100120001092040280910402909105020597A4F5B3
:10013000109201021092000280910002909101023F
:1001400084369105FCF41092030210920202809111
:100150000202909103028436910554F480910202C8
:100160009091030201969093030280930202EFCFD5
:100170008091000290910102019690930102809378
:100180000002DACF809104029091050201969093CB
:10019000050280930402C6CF18B81092050210928F
:1001A0000402809104029091050205970CF0B5CFEE
:1001B00010920102109200028091000290910102BF
:1001C00084369105FCF41092030210920202809191
:1001D0000202909103028436910554F48091020248
:1001E0009091030201969093030280930202EFCF55
:1001F00080910002909101020196909301028093F8
:100200000002DACF8091040290910502019690934A
:0C021000050280930402C5CFF894FFCFD4
:00000001FF
