:100000000C9472000C9486000C9486000C9486006C
:100010000C9486000C9486000C9486000C94860048
:100020000C9486000C9486000C9486000C94860038
:100030000C9486000C9486000C9486000C94860028
:100040000C9486000C9486000C9486000C94860018
:100050000C9486000C9486000C9486000C94860008
:100060000C9486000C9486000C9486000C948600F8
:100070000C9486000C9486000C9486000C948600E8
:100080000C9486000C9486000C9486000C948600D8
:100090000C9486000C9486000C9486000C948600C8
:1000A0000C9486000C9486000C9486000C948600B8
:1000B0000C9486000C9486000C9486000C948600A8
:1000C0000C9486000C9486000C9486000C94860098
:1000D0000C9486000C9486000C9486000C94860088
:1000E0000C94860011241FBECFEFD1E2DEBFCDBF3E
:1000F00000E00CBF22E0A0E0B2E001C01D92AA31F6
:10010000B207E1F70E9488000C94C0000C94000034
:100110008FEF87B988B988EE93E0909311028093AE
:10012000100289E29CE5ABE1B3EC8093040290936A
:100130000502A0930602B0930702809312029093E7
:100140001302A0931402B093150285E69FEF9093DB
:10015000010280930002909319028093180218B84C
:100160008FEF88B9EFE9FFE03197F1F700C00000A9
:1001700018B8EFE9FFE03197F1F700C00000F1CFC8
:04018000F894FFCF21
:00000001FF
