:100000000C9472000C948B000C948B000C948B005D
:100010000C948B000C948B000C948B000C948B0034
:100020000C948B000C948B000C948B000C948B0024
:100030000C948B000C948B000C948B000C948B0014
:100040000C948B000C948B000C948B000C948B0004
:100050000C948B000C948B000C948B000C948B00F4
:100060000C948B000C948B000C948B000C948B00E4
:100070000C948B000C948B000C948B000C948B00D4
:100080000C948B000C948B000C948B000C948B00C4
:100090000C948B000C948B000C948B000C948B00B4
:1000A0000C948B000C948B000C948B000C948B00A4
:1000B0000C948B000C948B000C948B000C948B0094
:1000C0000C948B000C948B000C948B000C948B0084
:1000D0000C948B000C948B000C948B000C948B0074
:1000E0000C948B0011241FBECFEFD1E2DEBFCDBF39
:1000F00000E00CBF14E0A0E0B2E0ECEAF2E000E0C7
:100100000BBF02C007900D92A03DB107D9F70E9426
:100110008D000C9454010C9400008FEF84B98DB9BC
:100120009BEA909380009AE09093810080939000E6
:100130009093910040E052E0A0E1B1E000EE13E0C6
:10014000C0E2D0E020EF32E080E090E0FA01608190
:1001500060938800618160938900803F91053CF045
:10016000688160938C00698160938D000AC0F901F9
:10017000608160938C00618160938D008837910568
:100180003CF06C9160938A0011966C91119705C0B8
:10019000F801608160938A00618160938B00FA01AD
:1001A000608171816230710550F0625060939800F7
:1001B00060817181625071097093990006C06093EB
:1001C0009800FA01618160939900803F9105ACF03D
:1001D000688179816230710550F0625060939C00B3
:1001E000688179816250710970939D004AC0609363
:1001F0009C00698160939D0044C0F9016081718118
:100200006230710550F0625060939C006081718192
:100210006250710970939D0006C060939C00F901C3
:10022000618160939D00883791055CF5F8016081DC
:1002300071816230710550F0625060939A00608164
:1002400071816250710970939B0006C060939A009F
:10025000F801618160939B00EFE3FCE93197F1F7CE
:1002600000C0000001964E5F5F4F12960E5F1F4F59
:1002700022962E5F3F4F8836F1E09F0709F066CF48
:1002800059CF6D917C9111976230710538F06250B1
:1002900060939A006D917C911197D3CF60939A00EF
:0C02A00011966C911197D6CFF894FFCF07
:1002AC000002090212021B0224022D0236023E0237
:1002BC0047025002590262026A0273027C028502F2
:1002CC008D0296029E02A702AF02B702C002C802BC
:1002DC00D002D802E002E802F002F80200030803A0
:1002EC000F0317031E0326032D0334033B034203A2
:1002FC004903500357035D0364036A0370037603D9
:10030C007C03820388038E03930399039E03A30348
:10031C00A803AD03B203B703BB03C003C403C803F4
:10032C00CC03D003D403D703DB03DE03E103E403E4
:10033C00E703EA03EC03EF03F103F303F503F7031D
:10034C00F803FA03FB03FC03FD03FE03FF03FF03A7
:10035C0000040004000400040004FF03FF03FE0378
:10036C00FD03FC03FB03FA03F803F703F503F303A4
:10037C00F103EF03EC03EA03E703E403E103DE0319
:10038C00DB03D703D403D003CC03C803C403C003DB
:10039C00BB03B703B203AD03A803A3039E039903E6
:1003AC0093038E03880382037C03760370036A0332
:1003BC0064035D0357035003490342033B033403B7
:1003CC002D0326031E0317030F0308030003F80273
:1003DC00F002E802E002D802D002C802C002B70262
:1003EC00AF02A7029E0296028D0285027C02730266
:1003FC006A0262025902500247023E0236022D0284
:10040C0024021B02120209020002F701EE01E501AF
:10041C00DC01D301CA01C201B901B001A7019E01DF
:10042C0096018D0184017B0173016A0162015901FE
:10043C005101490140013801300128012001180106
:10044C00100108010001F800F100E900E200DA00F7
:10045C00D300CC00C500BE00B700B000A900A300BB
:10046C009C00960090008A0084007E007800720048
:10047C006D00670062005D00580053004E0049009B
:10048C00450040003C003800340030002C002900AE
:10049C00250022001F001C0019001600140011007A
:1004AC000F000D000B0009000800060005000400F9
:1004BC000300020001000100000000000000000029
:1004CC00000001000100020003000400050006000A
:1004DC00080009000B000D000F001100140016009D
:1004EC0019001C001F002200250029002C003000E0
:1004FC00340038003C004000450049004E005300D9
:10050C0058005D00620067006D00720078007E008C
:10051C0084008A00900096009C00A300A900B00003
:10052C00B700BE00C500CC00D300DA00E200E90041
:10053C00F100F80000010801100118012001280148
:10054C0030013801400149015101590162016A0130
:10055C0073017B0184018D0196019E01A701B001FD
:10056C00B901C201CA01D301DC01E501EE01F701B9
:00000001FF
