:100000000C9472000C947E000C947E000C947E0084
:100010000C947E000C947E000C947E000C947E0068
:100020000C947E000C947E000C947E000C947E0058
:100030000C947E000C947E000C947E000C947E0048
:100040000C947E000C947E000C947E000C947E0038
:100050000C947E000C947E000C947E000C947E0028
:100060000C947E000C947E000C947E000C947E0018
:100070000C947E000C947E000C947E000C947E0008
:100080000C947E000C947E000C947E000C947E00F8
:100090000C947E000C947E000C947E000C947E00E8
:1000A0000C947E000C947E000C947E000C947E00D8
:1000B0000C947E000C947E000C947E000C947E00C8
:1000C0000C947E000C947E000C947E000C947E00B8
:1000D0000C947E000C947E000C947E000C947E00A8
:1000E0000C947E0011241FBECFEFD1E2DEBFCDBF46
:1000F00000E00CBF0E9480000C94BA000C94000039
:100100008FEF87B981B980930A0182E08DB91AB85F
:100110001092C50088E08093C4001092C0008093C4
:10012000C10096E09093C2001092CD008093CC0065
:100130001092C80080E18093C9009093CA0028E023
:1001400035E041E092E018B810920B018091C800B0
:100150008F788093C8002093C1003093C60048B9BF
:100160008091C8008823E1F398B98091CE008F5F19
:0801700082B9E9CFF894FFCF3A
:00000001FF
