:100000000C9472000C947E000C947E000C947E0084
:100010000C947E000C947E000C947E000C947E0068
:100020000C947E000C947E000C947E000C947E0058
:100030000C947E000C947E000C947E000C947E0048
:100040000C947E000C947E000C947E000C947E0038
:100050000C947E000C947E000C947E000C947E0028
:100060000C947E000C947E000C947E000C947E0018
:100070000C947E000C947E000C947E000C947E0008
:100080000C947E000C947E000C947E000C947E00F8
:100090000C947E000C947E000C947E000C947E00E8
:1000A0000C947E000C947E000C947E000C947E00D8
:1000B0000C947E000C947E000C947E000C947E00C8
:1000C0000C947E000C947E000C947E000C947E00B8
:1000D0000C947E000C947E000C947E000C947E00A8
:1000E0000C947E0011241FBECFEFD1E2DEBFCDBF46
:1000F00000E00CBF0E94B1000C94BE000C94000004
:100100001092C50088E08093C4001092C0008093D4
:10011000C10096E09093C2001092CD008093CC0075
:100120001092C80080E18093C9009093CA0008959E
:1001300038E041E022E018B810920B019091C8001D
:100140009F789093C8003093C1008093C60048B94F
:100150009091C8009923E1F328B99091CE0092B90B
:10016000EACF8FEF87B981B980930A0182E08DB918
:100170001AB80E94800084E50E949800F894FFCF8E
:00000001FF
