:100000000C9472000C9486000C9486000C9486006C
:100010000C9486000C9486000C9486000C94860048
:100020000C9486000C9486000C9486000C94860038
:100030000C9486000C9486000C9486000C94860028
:100040000C9486000C9486000C9486000C94860018
:100050000C9486000C9486000C9486000C94860008
:100060000C9486000C9486000C9486000C948600F8
:100070000C9486000C9486000C9486000C948600E8
:100080000C9486000C9486000C9486000C948600D8
:100090000C9486000C9486000C9486000C948600C8
:1000A0000C9486000C9486000C9486000C948600B8
:1000B0000C9486000C9486000C9486000C948600A8
:1000C0000C9486000C9486000C9486000C94860098
:1000D0000C9486000C9486000C9486000C94860088
:1000E0000C94860011241FBECFEFD1E2DEBFCDBF3E
:1000F00000E00CBF22E0A0E0B2E001C01D92A630FB
:10010000B207E1F70E9488000C9409010C940000EA
:100110008FEF87B988B918B82FEF28B91092050268
:10012000109204028091040290910502843F914054
:1001300094F51092010210920002809100029091B9
:1001400001020A97F4F410920302109202028091C5
:100150000202909103020A9754F480910202909156
:10016000030201969093030280930202F0CF8091E4
:100170000002909101020196909301028093000287
:10018000DCCF8091040290910502019690930502C4
:1001900080930402C7CF18B810920502109204028F
:1001A00080910402909105020A970CF0B6CF10924C
:1001B00001021092000280910002909101020A97C0
:1001C000F4F41092030210920202809102029091C4
:1001D00003020A9754F4809102029091030201965F
:1001E0009093030280930202F0CF809100029091DD
:1001F000010201969093010280930002DCCF80916E
:1002000004029091050201969093050280930402E6
:06021000C7CFF894FFCFF8
:00000001FF
